{
  "contractName": "UserRegistry",
  "abi": [
    {
      "inputs": [
        {
          "internalType": "bytes32",
          "name": "userHash",
          "type": "bytes32"
        }
      ],
      "name": "registerUser",
      "outputs": [],
      "stateMutability": "nonpayable",
      "type": "function"
    },
    {
      "inputs": [
        {
          "internalType": "bytes32",
          "name": "userHash",
          "type": "bytes32"
        }
      ],
      "name": "verifyUser",
      "outputs": [
        {
          "internalType": "bool",
          "name": "",
          "type": "bool"
        }
      ],
      "stateMutability": "view",
      "type": "function",
      "constant": true
    }
  ],
  "bytecode": "0x608060405234801561001057600080fd5b5061028f806100206000396000f3fe608060405234801561001057600080fd5b50600436106100365760003560e01c80632dc032591461003b5780636e67518b14610057575b600080fd5b61005560048036038101906100509190610179565b610087565b005b610071600480360381019061006c9190610179565b610115565b60405161007e91906101c1565b60405180910390f35b60008082815260200190815260200160002060009054906101000a900460ff16156100e7576040517f08c379a00000000000000000000000000000000000000000000000000000000081526004016100de90610239565b60405180910390fd5b600160008083815260200190815260200160002060006101000a81548160ff02191690831515021790555050565b600080600083815260200190815260200160002060009054906101000a900460ff169050919050565b600080fd5b6000819050919050565b61015681610143565b811461016157600080fd5b50565b6000813590506101738161014d565b92915050565b60006020828403121561018f5761018e61013e565b5b600061019d84828501610164565b91505092915050565b60008115159050919050565b6101bb816101a6565b82525050565b60006020820190506101d660008301846101b2565b92915050565b600082825260208201905092915050565b7f5573657220616c72656164792065786973747300000000000000000000000000600082015250565b60006102236013836101dc565b915061022e826101ed565b602082019050919050565b6000602082019050818103600083015261025281610216565b905091905056fea2646970667358221220c47c6da279badc4a6a95b7727be6b1523d8b113e9ff0ed8853ea4bd611170a3a64736f6c63430008130033",
  "immutableReferences": {},
  "source": "// SPDX-License-Identifier: MIT\npragma solidity ^0.8.10;\n\ncontract UserRegistry {\n    mapping(bytes32 => bool) private users;\n\n    function registerUser(bytes32 userHash) public {\n        require(!users[userHash], \"User already exists\");\n        users[userHash] = true;\n    }\n\n    function verifyUser(bytes32 userHash) public view returns (bool) {\n        return users[userHash];\n    }\n}",
  "sourcePath": "/home/sevo/Desktop/java/quiz-blockchain/contracts/UserRegistry.sol",
  "compiler": {
    "name": "solc",
    "version": "0.8.19+commit.7dd6d404.Emscripten.clang"
  },
  "schemaVersion": "3.4.16",
  "updatedAt": "2025-09-04T11:22:42.243Z",
  "networkType": "ethereum",
  "devdoc": {
    "kind": "dev",
    "methods": {},
    "version": 1
  },
  "userdoc": {
    "kind": "user",
    "methods": {},
    "version": 1
  }
}